:020000040800F2
:10000000B817002045010008EF040008C7040008E5
:10001000EB040008B9010008B50B0008000000005F
:10002000000000000000000000000000B50600080D
:1000300069030008000000009D050008C9070008CA
:100040005F0100085F0100085F0100085F01000810
:100050005F0100085F0100085F0100085F01000800
:100060005F0100085F0100085F0100085F010008F0
:100070005F0100085F0100085F0100085F010008E0
:100080005F0100085F0100085F0100085F010008D0
:100090005F0100085F0100085F0100085F010008C0
:1000A0005F0100085F0100085F0100085F010008B0
:1000B0005F0100085F0100085F0100085F010008A0
:1000C0005F0100085F0100085F0100085F01000890
:1000D0005F0100083D0800085F0100085F0100089B
:1000E0005F0100085F0100085F0100085F01000870
:1000F0005F0100085F0100085F0100085F01000860
:100100005F0100085F0100085F0100085F0100084F
:100110005F0100085F0100085F0100085F0100083F
:100120005F0100085F0100085F0100085F0100082F
:10013000DFF80CD000F02EF800480047910D0008C1
:10014000B81700200648804706480047FEE7FEE74C
:10015000FEE7FEE7FEE7FEE7FEE7FEE7FEE7FEE777
:10016000DD0700083101000830B50B4601460020CC
:100170002022012409E021FA02F59D4205D303FA69
:1001800002F5491B04FA02F52844151EA2F10102EA
:10019000F1DC30BD064C074D06E0E06840F001039D
:1001A00094E8070098471034AC42F6D3FFF7C4FF39
:1001B000980D0008B80D000800BFFEE721B10268E5
:1001C00042F00102026004E002684FF6FE731A403A
:1001D0000260704701684FF6FE7211400160002115
:1001E000016041608160C1604B49884208D14A4941
:1001F0000839496841F00F01474A083A51608AE0DE
:1002000045491431884208D143490839496841F0C9
:10021000F001414A083A51607DE03F492831884267
:1002200008D13D490839496841F470613A4A083AB1
:10023000516070E038493C31884208D1364908396C
:10024000496841F47041344A083A516063E03249E8
:100250005031884208D130490839496841F4702149
:100260002D4A083A516056E02B496431884208D142
:1002700029490839496841F47001274A083A516010
:1002800049E025497831884208D12349083949682D
:1002900041F07061204A083A51603CE01F498842B1
:1002A00006D1011F096841F00F01021F116032E001
:1002B0001A491431884208D11849091F096841F0C8
:1002C000F001164A121F116025E0144928318842B6
:1002D00008D11249091F096841F470610F4A121FC1
:1002E000116018E00D493C31884208D10B49091FC3
:1002F000096841F47041094A121F11600BE0074977
:100300005031884207D10549091F096841F470211D
:10031000024A121F116070470800024008040240A0
:100320000146486880B2704710B50022026847F65F
:10033000F0739A430C6A8B6823430C6923434C691E
:1003400023438C692343CC6923434C6A23438C6A3F
:1003500023431A430260CB6843600B6883604B6899
:10036000C36010BD416070477047000010B56FF06A
:10037000040000F015FA0A4800680A49B0FBF1F0E1
:10038000094908700846007800EB4001C1EBC01035
:100390004FF6FF7101EAC0000449088010BD00005B
:1003A0000000002000127A00280000202A0000200F
:1003B0002DE9F041024600250026002000230024FC
:1003C000002791F803C00CF00F0591F803C00CF062
:1003D000100CBCF1000F03D091F802C04CEA0505E7
:1003E00091F800C0BCF1000F31D0146800202BE060
:1003F0004FF0010C0CFA00F3B1F800C00CEA030650
:100400009E4220D183004FF00F0C0CFA03F7BC433F
:1004100005FA03FC4CEA040491F803C0BCF1280F70
:1004200006D14FF0010C0CFA00FCC2F814C00AE02F
:1004300091F803C0BCF1480F05D14FF0010C0CFA44
:1004400000FCC2F810C0401C0828D1D31460B1F8D9
:1004500000C0BCF1FF0F34DD546800202EE000F135
:10046000080C4FF0010808FA0CF3B1F800C00CEAD0
:1004700003069E4221D183004FF00F0C0CFA03F7C4
:10048000BC4305FA03FC4CEA040491F803C0BCF138
:10049000280F05D100F1080C08FA0CF8C2F81480F6
:1004A00091F803C0BCF1480F07D100F1080C4FF0E0
:1004B000010808FA0CF8C2F81080401C0828CED3B6
:1004C0005460BDE8F08100BFFEE710B5044600218E
:1004D0002046FFF773FE41F288312046FFF742FFC6
:1004E00001212046FFF76AFE10BD00BFFEE77047FE
:1004F00070B5002100230F22C47804B3154C246882
:1005000004F4E064C4F5E064210AC1F10403CA40C4
:10051000447804FA03F184781440214309010E4C15
:100520000678A155047804F01F050124AC40057835
:100530006D11AD0005F1E025C5F8004109E0047832
:1005400004F01F050124AC40044D0678761145F8EF
:10055000264070BD0CED00E000E400E080E100E02A
:1005600002490143024A1160704700000000FA0589
:100570000CED00E008B54FF4A060FFF7F1FF252077
:100580008DF8000002208DF8010001208DF8020096
:100590008DF803006846FFF7ABFF08BD7047000009
:1005A00029B1064A52690243044B5A6104E0034AE6
:1005B00052698243014B5A617047000000100240AB
:1005C00029B1064A92690243044B9A6104E0034A46
:1005D00092698243014B9A6170470000001002400B
:1005E00030B500210022002400232D4D6D6805F058
:1005F0000C0121B1042905D0082923D105E0294D9A
:10060000056022E0274D05601FE0254D6D6805F46B
:100610007012234D6D6805F48034022505EB92427B
:100620001CB9214D554305600BE01D4D6D6805F467
:1006300000351DB11C4D5543056002E0194D554371
:10064000056002E0174D056000BF00BF144D6D68E6
:1006500005F0F0010909154D6B5C0568DD4045604A
:100660000F4D6D6805F4E061090A104D6B5C45683B
:10067000DD4085600A4D6D6805F46051C90A0B4D77
:100680006B5C4568DD40C560054D6D6805F4404113
:10069000890B074D6B5CC568B5FBF3F5056130BD93
:1006A0000010024000127A0000093D0014000020F2
:1006B00024000020704710B500F002F810BD0000C3
:1006C0000CB50020019000903348006840F4803061
:1006D0003149086000BF3048006800F400300090E5
:1006E0000198401C0190009818B90198B0F5A06FCE
:1006F000F1D12948006800F4003010B101200090C9
:1007000001E0002000900098012843D123480068B0
:1007100040F01000214908600846006820F00300FE
:1007200008600846006840F0020008601A48406807
:10073000194948600846406848600846406840F4E7
:10074000806048600846406820F47C104860084695
:10075000406840F4E81048600846006840F0807047
:10076000086000BF0C48006800F000700028F9D055
:100770000948406820F0030007494860084640687F
:1007800040F00200486000BF0348406800F00C00E1
:100790000828F9D10CBD00000010024000200240E2
:1007A000042808D14FF0E021096941F004014FF01D
:1007B000E022116107E04FF0E021096921F0040116
:1007C0004FF0E02211617047704710B5FFF7CEFD82
:1007D00000F096F800F0BEF910BD000010B5134807
:1007E000006840F00100114908600846406810495F
:1007F00008400E494860084600680E4908400B4909
:1008000008600846006820F48020086008464068B8
:1008100020F4FE0048604FF41F008860FFF74BFF94
:100820004FF000600449086010BD00000010024055
:100830000000FFF8FFFFF6FE08ED00E070B540F2A3
:100840002441154800F0C0F8002824D0124800F0D8
:1008500077F91248FFF764FDC0F18800C5B2294658
:100860000FA000F0B9F913A000F0B6F9002405E0DC
:100870001348015D084800F09FF9641CAC42F7DBA7
:1008800010A000F0A9F940F22441034800F01CF840
:100890000248FFF71AFE70BD0038014058000240C0
:1008A00044617461206C656E6768743A25640D0A52
:1008B0000000000054686520646174613A00000023
:1008C000300000200D0A000010B50022002340F681
:1008D0006A14A14200D100BF0A1201249440A3B2BD
:1008E000DC43048010BD21B1828942F40052828130
:1008F00004E082894DF6FF731A4082817047000040
:1009000000B585B001210420FFF75AFE01218803BC
:10091000FFF756FE4FF40070ADF8100018208DF868
:10092000130003208DF8120004A91A48FFF740FDB8
:100930004FF48060ADF8100004208DF8130004A976
:100940001448FFF735FD4FF4165000900020ADF825
:100950000400ADF80600ADF80800ADF80C000C205E
:10096000ADF80A0069460C4800F07EF8FFF702FE79
:10097000012240F22441084800F050F801224021B1
:10098000054800F00BF801210348FFF7ACFF05B064
:1009900000BD000000080140003801401AB1838A00
:1009A0000B43838202E0838A8B4383827047024633
:1009B0000020B1F5007F00D100BF13880B400BB1C0
:1009C000012000E00020704770B50246002400239B
:1009D0000025002040F66A16B14200D100BFC1F3E5
:1009E000421501F01F03012606FA03F3012D02D17F
:1009F0009689334006E0022D02D1168A334001E089
:100A0000968A33400C12012606FA04F41688344004
:100A100013B10CB1012000E0002070BDF0B5034619
:100A2000002400260025002040F66A17B94200D1B4
:100A300000BF1846C1F3421401F01F06012707FA50
:100A400006F5012C01D10C3004E0022C01D110304C
:100A500000E014301AB107682F43076002E007680E
:100A6000AF430760F0BD00002DE9F04786B00546B2
:100A70000E460024A24600BFA1460027B08900B15F
:100A800000BF2F462C8A4CF6FF700440F0880443C8
:100A90002C82AC894EF6F3100440B08831890843AB
:100AA000718908430443AC81AC8A4FF6FF4004408F
:100AB000B0890443AC8201A8FFF792FD1F4887422A
:100AC00002D1DDF810A001E0DDF80CA0A88900F447
:100AD000004040B10AEBCA0000EB0A10316849003F
:100AE000B0FBF1F807E00AEBCA0000EB0A1031682E
:100AF0008900B0FBF1F86420B8FBF0F00401200994
:100B0000642101FB1089A88900F4004040B1322023
:100B100000EBC900B0FBF1F000F00700044308E06F
:100B2000322000EB09106421B0FBF1F000F00F005F
:100B300004432C8106B0BDE8F08700000038014076
:100B400001468888C0F308007047C1F3080282801C
:100B50007047000000B58BB001210846FFF720FD6B
:100B60001148FFF737FB1148009011480190002011
:100B7000029041F28830039000200490802005907C
:100B800000200690079008904FF400500990002034
:100B90000A9069460448FFF7C7FB01210248FFF7A6
:100BA0000DFB0BB000BD00005800024004380140AE
:100BB0003000002000BFFEE770B504460D46294610
:100BC0002046FFF7C2FF00BF80212046FFF7EFFE5F
:100BD0000028F9D070BD00000FB4054B10B503A973
:100BE000044A029800F018F810BC5DF814FB0000ED
:100BF0006D0D00082C00002002E008C8121F08C17B
:100C0000002AFAD170477047002001E001C1121F8D
:100C1000002AFBD1704700002DE9FF4F89B09B46A9
:100C20000446002506E025280BD05A460B9990472C
:100C3000641C6D1C20780028F5D10DB02846BDE855
:100C4000F08F0027B8460122474900E0074314F817
:100C5000013F203B02FA03F00842F7D120782E280A
:100C600019D114F8010F47F004072A280ED06FF0AD
:100C70002F022078A0F1300109290CD808EB880157
:100C800002EB410100EB0108641CF2E70A98641CC6
:100C900050F8048B0A9020780028CED0642808D021
:100CA000692806D075281ED05A460B9990476D1CAE
:100CB00058E00A994FF00A0901C90A91002802DA9E
:100CC00040422D2102E0390504D52B218DF820105A
:100CD000012103E0F90704D02021F7E78A4608AE96
:100CE0000DE00021FAE70A994FF00A0901C90A91BB
:100CF000F7E74946FFF738FA303106F8011D0028BA
:100D0000F7D1ADEB060000F12009780701D44FF0D0
:100D10000108C84502DDA8EB090000E0002080467C
:100D2000002706E008A85A46C05D0B9990476D1C45
:100D30007F1C5745F6DB04E030205A460B9990475C
:100D40006D1CB8F10001A8F10108F5DC05E016F80A
:100D5000010B5A460B9990476D1CB9F10001A9F19E
:100D60000109F4DC641C65E70928010070B504463C
:100D70000D46E1B20548FFF7E8FE00BF80210348B9
:100D8000FFF715FE0028F9D0204670BD003801405D
:100D9000FFF71BFD00BFFEE7B80D000800000020B4
:100DA00030000000F80B0008E80D000830000020BB
:100DB00088170000080C000800A24A040000000088
:100DC00000000000010203040607080900000000FB
:100DD00001020304010203040607080902040608CD
:080DE00000000000000000000B
:0400000508000131BD
:00000001FF
